{
  "transactions": [
    {
      "hash": "0xe20449d56978d0a42aba01d46c571fe7698f65546ebe842a8df37cb82a117274",
      "transactionType": "CALL",
      "contractName": null,
      "contractAddress": "0x7563ebabd035651c155832d3f01df0d9d2efb358",
      "function": "mintNFT(string)",
      "arguments": [
        "ipfs://bafybeig37ioir76s7mg5oobetncojcm3c3hxasyd4rvid4jqhy4gkaheg4/?filename=0-PUG.json"
      ],
      "transaction": {
        "from": "0x1acc0d474d26a0630dae7436f1969c68b5358959",
        "to": "0x7563ebabd035651c155832d3f01df0d9d2efb358",
        "gas": "0x414a6",
        "value": "0x0",
        "input": "0xfb37e88300000000000000000000000000000000000000000000000000000000000000200000000000000000000000000000000000000000000000000000000000000057697066733a2f2f62616679626569673337696f6972373673376d67356f6f6265746e636f6a636d3363336878617379643472766964346a71687934676b61686567342f3f66696c656e616d653d302d5055472e6a736f6e000000000000000000",
        "nonce": "0x5",
        "chainId": "0xaa36a7"
      },
      "additionalContracts": [],
      "isFixedGasLimit": false
    }
  ],
  "receipts": [
    {
      "status": "0x1",
      "cumulativeGasUsed": "0xee2386",
      "logs": [
        {
          "address": "0x7563ebabd035651c155832d3f01df0d9d2efb358",
          "topics": [
            "0xddf252ad1be2c89b69c2b068fc378daa952ba7f163c4a11628f55a4df523b3ef",
            "0x0000000000000000000000000000000000000000000000000000000000000000",
            "0x0000000000000000000000001acc0d474d26a0630dae7436f1969c68b5358959",
            "0x0000000000000000000000000000000000000000000000000000000000000000"
          ],
          "data": "0x",
          "blockHash": "0xcd1e630c5fd37fe1d60cf8245a9a061a955ab751e39322a14518aee4eaf90a11",
          "blockNumber": "0x7a5e39",
          "blockTimestamp": "0x67ea53c0",
          "transactionHash": "0xe20449d56978d0a42aba01d46c571fe7698f65546ebe842a8df37cb82a117274",
          "transactionIndex": "0x6e",
          "logIndex": "0x8f",
          "removed": false
        }
      ],
      "logsBloom": "0x00000000000000000000000000000000000000000000000000000000000000000000010000000000000000000000000000000000000000000000000000000000000000000000000000000008000000000000000000000020000000000000000000000000020000000000000000000800000000000000000000000010000000000000000000000000200400000000000000000000000000000000000000000000000000000000000000000000000000000000000000000000000000000000000000000002000000000001000000000000000000000000000000000000000020008000000000000000000000000000000000000000000000000000000000000000",
      "type": "0x2",
      "transactionHash": "0xe20449d56978d0a42aba01d46c571fe7698f65546ebe842a8df37cb82a117274",
      "transactionIndex": "0x6e",
      "blockHash": "0xcd1e630c5fd37fe1d60cf8245a9a061a955ab751e39322a14518aee4eaf90a11",
      "blockNumber": "0x7a5e39",
      "gasUsed": "0x2ca4b",
      "effectiveGasPrice": "0x4dcb5a2",
      "from": "0x1acc0d474d26a0630dae7436f1969c68b5358959",
      "to": "0x7563ebabd035651c155832d3f01df0d9d2efb358",
      "contractAddress": null
    }
  ],
  "libraries": [],
  "pending": [],
  "returns": {},
  "timestamp": 1743410113,
  "chain": 11155111,
  "commit": "1769c99"
}